:1000000000000320D10100009919000065190000CB
:1000100065190000651900006519000065190000E8
:1000200065190000651900006519000099190000A4
:100030009919000065190000991900005519000070
:1000400099190000991900009919000099190000E8
:1000500099190000991900009919000099190000D8
:1000600099190000991900009919000099190000C8
:1000700099190000991900009919000099190000B8
:1000800099190000991900009919000099190000A8
:100090009919000099190000991900009919000098
:1000A0009919000099190000991900009919000088
:1000B0009919000099190000991900003D200000CD
:1000C0009919000019270000991900002D2C000033
:1000D00099190000C1310000991900009919000018
:1000E0009919000099190000991900009919000048
:1000F0009919000099190000991900009919000038
:100100009919000099190000991900009919000027
:10011000991900006508000099190000991900005C
:100120009919000099190000991900009919000007
:1001300099190000991900009919000099190000F7
:1001400099190000991900009D36000099190000C6
:1001500099190000991900009919000099190000D7
:1001600099190000991900009919000099190000C7
:1001700099190000991900009919000099190000B7
:1001800099190000991900009919000099190000A7
:100190009919000099190000493C000099190000C4
:1001A0009919000099190000991900009919000087
:1001B0009919000099190000991900009919000077
:1001C0009919000099190000991900009919000067
:1001D0005C4B4CF2205210B51A804DF628121A8052
:1001E00000BF00BF01F0DCFB574B4FF030621A60DC
:1001F000564A9A60564ADA60564B4FF470021A60BB
:10020000554B564A1A60564B1A6812F4807204D144
:1002100054490A604FF4A8521A60534B1A781107D8
:1002200003D51A7842F008021A70504BAA221A70AD
:1002300000234F4A4F499818884204D24E495958D2
:1002400099500433F5E74D4A4D4B9A424FF0000365
:1002500002D242F8043BF7E74A494B4A59589950B1
:100260000433B3F5E87FF7D1484B802103F8011B35
:1002700047498B42F9D1474B1A60474B8A221A7083
:10028000A3F5805324225A70A0221A709A799207FB
:10029000FCD59A79D406FCD4404B9B7903F00C032F
:1002A000082BF9D13E4B60221A703E4B1B78802BF5
:1002B000FBD13A4B01221A715D225A719A7990064C
:1002C000FCD59A795106FCD5374B384A1A60002282
:1002D0005A60324B20221A70304B9B7903F00C038A
:1002E0000C2BF9D1324B334A1A60334B334A1A6024
:1002F00000225A60072243F8042C314AC3F80C2D1F
:1003000062B600F065F9174B1B68DA0705D52D4872
:1003100000F0C6F82C4B2D4A1A602D4B1B785B065B
:1003200009D5294C294A2368934204D1254800F075
:10033000B7F80023236003F06FFD01F037FB00F0F6
:10034000A4F8FEE70E20054030800440823F040000
:100350000100002B88ED00E0002008E0030000858C
:1003600010D0034014D0034002D0074000E0074003
:100370006007FF1F0C08FF1F644300000C08FF1FED
:10038000940CFF1F000000000002FF1F00E400E0CB
:1003900064E400E008ED00E0005006400040064044
:1003A00001E0074003E007404480044000000602EB
:1003B00004800440C010070014E000E01FBF0200EA
:1003C00000002020D7BB73581CE00340A5C3945AFB
:1003D00000F00740FFFFFFFFFFFFFFFFFFFFFFFFF2
:1003E000FFFFFFFFFFFFFFFFFFFFFFFFFFFFFFFF1D
:1003F000FFFFFFFFFFFFFFFFFFFFFFFFFFFFFFFF0D
:10040000FFFFFFFFFFFFFFFFFFFFFFFFDEF9FFFF23
:1004100010B5054C237833B9044B13B10448AFF33E
:1004200000800123237010BD0C08FF1F0000000096
:100430006443000008B5064B1BB106480649AFF3FC
:1004400000800648036813B1054B03B1984708BD07
:1004500000000000644300001008FF1F0C08FF1F8D
:100460000000000008B501210D2000F029F84FF42C
:100470007A7000F097F80D20002100F021F84FF479
:100480007A70BDE8084000F08DB808B500F0A0F81B
:100490000D20012100F034F8FFF7E4FFFCE7FFFF37
:1004A000044B054900221A600A60044A10601022B9
:1004B0001A60704714D0034004D0034000D00340BA
:1004C0003F2810B518D80D4A52F8303093F88042C2
:1004D0003CB1012211B183F8802010BD83F80021C6
:1004E00010BD02EBC00043681A6811B142F003026C
:1004F00001E022F002021A6010BD00BF743E00004D
:100500003F2810B52BD8164A02EBC00301295B68BF
:10051000144601D004290FD154F83020012082F86C
:1005200080024FF4A2721A601A6804290CBF42F0CC
:10053000200222F0200211E052F83000002280F860
:10054000802211B94FF4807208E0022902D140F2F2
:10055000031203E0032908BF4FF481721A6010BD33
:10056000743E000072B60C4B0C491A680C4B1B68A9
:10057000096862B6490102D5322A88BF0133C2F543
:100580002F32B42102F21F32B2FBF1F24FF47A7033
:1005900000FB0320704700BF18E000E004ED00E01E
:1005A0002808FF1F38B50446FFF7DCFF054624B9CD
:1005B00038BD013C0AD005F57A75FFF7D3FF401B23
:1005C000B0F57A7FF5D200F00DFEF6E738BDFFFFFB
:1005D000354B36494FF0006270B51A604FF08052CB
:1005E0001A604FF000521A604FF080421A604FF0CC
:1005F00000421A602E4B2F4D2F4C304E00224EF6EB
:10060000FF701A60586028230B608B600B618B6150
:100610000B628B620B638B63103101F501212B6040
:1006200023600B608B600B618B610B628B62092115
:10063000316006F58056043632607060B360336115
:1006400046F8041C06F5FE2632607060B360336124
:1006500046F8041C06F580563260706018482B601E
:10066000236001601749086840F40070086051F881
:10067000280C40F0007041F8280C283901F50121C0
:100680000A60114A47F6FF7111605360D3600F4B47
:1006900008221A6001F002F94FF4C870FFF782FFD8
:1006A000BDE8704000F0DCBB04E100E00C800340DA
:1006B000048003400C900B4014900B4000800340DA
:1006C00000900B402C80044008900C4000900C409F
:1006D000F0B50C4B0C4C1A7842F0020504EBC50641
:1006E00082F00102706009481A700678002E0CBF73
:1006F0008827C82786F0010647EA0141067044F8BA
:100700003510F0BD9408FF1F0000FF1F0C09FF1FEC
:10071000431E032B10B510D872B6094A52F82300B5
:1007200048B1416842F82310064A018832F8134064
:10073000611A22F8131062B610BD002010BD00BF70
:100740008408FF1F800CFF1F013803280AD872B6E7
:10075000054B53F82030002013B101305B68FBE7F4
:1007600062B6704700207047D808FF1F10B572B6F8
:100770000123174A1A4412F8012C12071CD59900BC
:10078000144A52F831402CB902EB43130830586038
:10079000114B09E041F0010152F8314064B902EB1C
:1007A000C103083058600D4B42F831300C4B1A78B9
:1007B000013A1A7062B610BD0133052BD9D162B669
:1007C000074B00221A70BDE8104000F0B7BB00BF15
:1007D000B84200000000FF1F88004000C800400031
:1007E0000209FF1F431E032B30B532D8194A4001BE
:1007F00040F01000104472B6174CE25C032A09D88E
:10080000DFE802F0160218050830022213E0083073
:10081000042210E01148124A50F8234014B940F85D
:10082000231002E052F82300416042F823100FE049
:10083000032200E00522E25410F0080F01F1080342
:100840000A8843600CBF8823C82343EA024303603D
:1008500062B630BD0000FF1F4008FF1FD808FF1F11
:10086000E808FF1F2DE9F84FAB4F3C78E4B214F0D5
:10087000040F3D4619D0A94B1B78A3B1A84A1178A3
:1008800001F0FF0321B1013BDBB2137003B900BEDD
:10089000A44A117801F0FF0329B1013BDBB21370C8
:1008A0000BB900F07BFC04233B7004F0080303F059
:1008B000FF02002B00F067829B4B9C4C1A78D2B24F
:1008C00015094FEA920840F0E48104EBC803596827
:1008D00054F83830C3F38303013B0C2B00F2D6816C
:1008E000DFE813F095019501D401D401D401D401BE
:1008F000D401D401B001D401D401D4010D008C4D38
:100900000A684B688B486B6001218B4B44F8383088
:100910002A60DFF85082017092B240F281600023B9
:100920008242C8F800302361A36117D8B2F5D06FB6
:1009300080F01E81B2F5817F00F0CF8006D8802A3A
:1009400000F0BA80822A00F0BB8031E140F202332D
:100950009A4200F0D180B2F5A06F1CE042F2210073
:10096000824200F051810ED8B2F5086F00F09E80EF
:10097000B2F5106F40F01C81684B6C4EAA781A706B
:1009800006F180090AE042F221218A4200F0088142
:1009900042F221339A4200F00F8109E1336A1B06CB
:1009A00003D5706A083800F0C9FA08364E45F5D10B
:1009B0000026B146DFF8B0A156F80A0028B1D0F8F9
:1009C00004B000F0BBFA5846F8E74AF806005B4B63
:1009D000DFF898A1F05056F80A0028B1D0F804B01A
:1009E00000F0ACFA5846F8E7554B4AF80600F050CC
:1009F000544B23F81900544B19F80320023A032AE8
:100A000008D8DFE802F002040204002200E001221C
:100A100003F8092009F10109B9F1040F06F10406F0
:100A2000C8D14A4B00221A7001269A46484A494BBF
:100A30003244334412F8012C9B0012F0080F1A7054
:100A40004FEA860925D000F05BFA38B104EB461373
:100A500008305860404B44F8393006E09AF80030CE
:100A600044F8390001338AF8003000F049FA49F0BF
:100A7000010338B104EBC302083050602E4A44F839
:100A8000332006E044F833009AF8003001338AF846
:100A9000003049F00202013649F003090023052E17
:100AA00044F8323044F83930C0D186E01B4B2B4C2F
:100AB0001B7823700B4683E0284C237063707EE024
:100AC000AA88042A74D8254C920023706370244BA2
:100AD0009B5C9E0773D5217071E0AA8802F07F02AB
:100AE000042A65DC6B88002B62D191001C4A0A4401
:100AF000117821F0020159E0AA8802F07F02042A4D
:100B000056DC6B88002B53D19100154A0A441178AA
:100B100041F002014AE000BF802007400B09FF1F9F
:100B20009508FF1F0D09FF1F902007400000FF1FC1
:100B3000F808FF1F0C09FF1FC80040003008FF1F06
:100B4000E808FF1F800CFF1F4008FF1F0209FF1F5E
:100B5000B842000030C80110880040000309FF1FA0
:100B6000C02007402C08FF1F8408FF1FD808FF1F64
:100B70006A88A9889F4B53F8084CA3F10C00BCB1BC
:100B800033F80C6C964209D133F80A6C8E4205D1C9
:100B9000120A032A0CBF2378038911E00C33EAE719
:100BA000954A1168954A1160A978954A117004E038
:100BB000944B0F221A7027E000231C4600E002230A
:100BC000EE88B34238BF1E46402E34BF354640251E
:100BD00020462946FFF77CFD761B2C4403D1402D8F
:100BE00012D1354603E0402E34BF3546402520461D
:100BF0002946FFF76DFD761B2C4401D1402D03D112
:100C0000814AC8F8004016800122804B3DE0804BAD
:100C10001A8842F221039A4210D100237D4AC85C0F
:100C200098540133072BF9D11368862B02D17A4BE4
:100C30000F221A7000200146FFF74AFD774B44F857
:100C4000383023E0764E3568B5B1DFF8BC81B8F8AE
:100C50000090B9F1400F34BF4C464024284621464D
:100C6000FFF736FDC4EB09039BB2A8F800300BB9BF
:100C7000402C00D12B193360654B1A88B2F5A06F58
:100C800004D100225A709A78664B1A7001225F4B89
:100C90006CE004EBC806013D736802F00802A3F1A2
:100CA0000800EDB202F0FF01002A36D000F046F94C
:100CB0005D485E4B50F82520EAB1516840F8251098
:100CC00002F108017160595D03290BD8DFE801F0DA
:100CD00002040608032104E0022102E0052100E0ED
:100CE0000421595516F0080F12880CBF8823C82319
:100CF00043EA024342E05A5D032A07D8DFE802F0E4
:100D000040400204002206E0012204E016F0080F31
:100D10000CBF022203225A5532E054F83820120C3C
:100D200023F8082C22B3DFF834E123F8061C43F83B
:100D3000041C5EF825303E4913B94EF8250002E048
:100D400051F8253058603B4B41F8250033F8151019
:100D50000A4423F8152000F0D3F810B10830706071
:100D600006E0354B44F838001A7801321A7007E073
:100D70002A4B324A16F0080F08BF134644F83830A1
:100D800008233B7070E5E0071FD520492B482C4C09
:100D900002230B702B4B1A702B4B186098602B485A
:100DA000D8601A619A615C60164B0D201870284853
:100DB000FF2303702B700274264A1370264B9F2268
:100DC0001A7001230B70BDE8F88F210604D50D4B76
:100DD0000D221A7080232B70A20705D51C4B1A78A0
:100DE000D2B21A7002232B70E30644BF10232B707B
:100DF000BDE8F88FC84200002808FF1F900CFF1FB5
:100E00001C09FF1FC02007400009FF1F9420074056
:100E1000F808FF1F880CFF1F9508FF1FC80040003F
:100E20002C08FF1F98200740D808FF1F4008FF1F0D
:100E30003008FF1F800CFF1F0209FF1F88004000C1
:100E40004408FF1F9408FF1F0000FF1F9808FF1FA2
:100E5000882007408C200740842007408408FF1F1B
:100E600008B502F05FFF0022204B0021D1509818F6
:100E70000832882A4160F7D11D4A106840F480206A
:100E800010601C4A106840F04070106002F5C922E2
:100E900002F5A27203201070A02002F8040CC3F324
:100EA000072002F8A80CC3F307401B0E02F8940CAD
:100EB00002F8903CFF2302F8C43C02F8BC3CA83A7C
:100EC00002F88C3C012302F8083C82F8641002F816
:100ED000183C094B70226FF44C711A700B444FF49C
:100EE00000121A60054B10221A7008BD0000FF1F87
:100EF0003480044000D8004035E400E00821074079
:100F000072B60C4A1168B1FA81F30B2B02D962B6A2
:100F1000002070474FF00040D84021EA00011160E6
:100F200062B6054948225343C8180022CA5042609D
:100F3000704700BF6007FF1F0004FF1F0C4B4822D3
:100F4000C31AB3FBF2F30B2B11D80A4A127822B161
:100F5000094A12780AB1FFF709BC72B6074A4FF086
:100F6000004121FA03F311681943116062B670471A
:100F70000004FF1F0209FF1F0B09FF1F6007FF1F6F
:100F800010B5104C23686BB120684288531C024492
:100F9000147A0288934212D3FFF7D0FF094B002244
:100FA0001A600DE0084B1B7813B94FF0FF3010BDED
:100FB0000320FFF7ADFB20600028E5D1F5E7438073
:100FC000204610BD1809FF1F0B09FF1F10B50B4C61
:100FD000236813B123686BB902E0094B1B7813B97E
:100FE0004FF0FF3010BD0320FFF792FB2060002878
:100FF000F0D1F5E75A881344187A10BD1809FF1F7D
:101000000B09FF1F044B9888044B1B681BB11A88FF
:101010005B88D31A18447047800CFF1F1809FF1F04
:1010200010B5094B1B786BB1084C206818B1FFF75D
:1010300085FF002323600320FFF76AFB10B1FFF751
:101040007DFFF8E710BD00BF0B09FF1F1809FF1F48
:101050002DE9F0472E4E01230746894633700C4692
:10106000002C50D02B4D2B68AA462BBBDFF8B48048
:10107000294B1B7803F0FF020BB9327015E00420F6
:10108000FFF762FB072808D801233370FFF738FF0A
:10109000CAF8000080B91E4B1870B8F101081F4B48
:1010A00001D01A782AB101221A704FF0FF30BDE842
:1010B000F08700F097F8DBE7184B00221A702B68D6
:1010C0005888C0F140018C4238BF214600F1080C1D
:1010D00008449C445880641A8A4204D0B85C0CF8D6
:1010E00002000132F8E717445A883F2A07D9402204
:1010F0001A8019460420FFF775FB00232B60084B6C
:1011000005221A70ACE734704846BDE8F08700BF8E
:101110000E09FF1F1009FF1F0B09FF1F1409FF1FF6
:101120000D09FF1F2148010007B502AB012103F89B
:10113000010D1846FFF78CFF03B05DF804FBFFFFBD
:101140002DE9F041114B1B78F3B1114E114B34686E
:10115000114D01271F7098464CB1002763882F70EE
:10116000042023802146FFF73DFB376009E0FFF7AD
:10117000C7FE014620B104202C70FFF733FB00E0CE
:101180002F70002388F80030BDE8F0810B09FF1FA5
:101190001009FF1F0E09FF1F0D09FF1F38B50E4B69
:1011A0001B7803F0FF05ABB90C4C216831B14B88BB
:1011B0000B800420FFF716FB256038BDFFF7A0FE6B
:1011C000014620B10420BDE83840FFF70BBB044BBB
:1011D00001221A7038BD00BF0E09FF1F1009FF1F42
:1011E0000D09FF1F10B5154C237833BB0123237065
:1011F000FFF708FF08B102F0E2FD00F0A9FE08B118
:1012000000F098F801F012FA08B100F01DF901F0B1
:10121000A9FC08B100F0A2F901F06EFF08B100F0DE
:1012200027FA02F0D7F908B100F0ACFA02F0A8FCF6
:1012300008B100F024FB0023237010BD1D09FF1F1F
:1012400008B50368C9B21B68984708BD08B50368AC
:10125000C9B21B68984708BD08B50368C9B21B68C6
:10126000984708BD08B50368C9B21B68984708BD10
:10127000034800EB5100B0FBF1F000F0EDBB00BF04
:10128000002A751510B5064800EB51001446B0FB56
:10129000F1F000F0E1FB2046BDE8104000F050BC4A
:1012A000002A751500F082BC084600F0B3BC084661
:1012B00000F00EBD0846114600F0C8BC08B508464F
:1012C00000F03AFD003018BF012008BD08B50846FF
:1012D00000F054FD003018BF012008BD00F038BEFA
:1012E00000F070BE00F044BE00F016BE00F082BEFA
:1012F00000F01CBE08B5084600F066FD012008BDE0
:1013000008B5084600F060FD012008BD10B508468C
:101310001446114600F0A2FD204610BD38B508461F
:101320000D4602F09FFD04462146284600F096FD3A
:10133000204638BD7047FFFF044B00221A714FF45E
:101340007A711A73024A99601A6070472009FF1F68
:101350008040000008B50368C9B21B68984708BD03
:1013600008B50368C9B21B68984708BD08B503688B
:10137000C9B21B68984708BD08B50368C9B21B68A5
:10138000984708BD034800EB5100B0FBF1F000F0B6
:10139000D9BE00BF002A751510B5064800EB5100F4
:1013A0001446B0FBF1F000F0CDFE2046BDE8104041
:1013B00000F02CBF002A751500F05EBF084600F053
:1013C000AFBF084600F0FEBF0846114600F0C4BF9C
:1013D00008B5084601F01EF8003018BF012008BD0E
:1013E00008B5084601F038F8003018BF012008BDE4
:1013F00001F01CB901F054B901F028B901F0FAB8B4
:1014000001F066B901F000B908B5084601F04AF8E4
:10141000012008BD08B5084601F044F8012008BDC8
:1014200010B508461446114601F086F8204610BD56
:1014300038B508460D4602F015FD044621462846FB
:1014400001F07AF8204638BD7047FFFF044B0022B8
:101450001A714FF47A711A73024A99601A607047D0
:101460003009FF1FE040000008B50368C9B21B68DF
:10147000984708BD08B50368C9B21B68984708BDFE
:1014800008B50368C9B21B68984708BD08B503686A
:10149000C9B21B68984708BD034800EB5100B0FB78
:1014A000F1F001F0BDB900BF000E270710B50648E6
:1014B00000EB51001446B0FBF1F001F0B1F9204609
:1014C000BDE8104001F0ECB9000E270701F01EBA8C
:1014D000084601F04FBA084601F090BA0846114696
:1014E00001F064BA08B5084601F08AFA003018BF66
:1014F000012008BD08B5084601F0A4FA003018BF65
:10150000012008BD01F02EBB01F066BB01F03ABB23
:1015100001F00CBB01F078BB01F012BB08B5084626
:1015200001F0AEFA012008BD08B5084601F0A8FA9E
:10153000012008BD10B508461446114601F0EAFA2C
:10154000204610BD38B508460D4602F08BFC044617
:101550002146284601F0DEFA204638BD7047FFFFDD
:10156000044B00221A714FF47A711A73024A99607F
:101570001A6070474009FF1F4041000008B503682A
:10158000C9B21B68984708BD08B50368C9B21B6893
:10159000984708BD08B50368C9B21B68984708BDDD
:1015A00008B50368C9B21B68984708BD034800EB3B
:1015B0005100B0FBF1F001F0A1BB00BF000E270706
:1015C00010B5064800EB51001446B0FBF1F001F0F5
:1015D00095FB2046BDE8104001F0F0BB000E270748
:1015E00001F022BC084601F077BC084601F0C6BCF9
:1015F0000846114601F08CBC08B5084601F0E6FC2F
:10160000003018BF012008BD08B5084601F000FDF4
:10161000003018BF012008BD01F06EBD01F0A6BD6D
:1016200001F07ABD01F04CBD01F0B8BD01F052BD32
:1016300008B5084601F0EEFC012008BD08B50846D3
:1016400001F0E8FC012008BD10B50846144611461B
:1016500001F02AFD204610BD38B508460D4602F0BF
:1016600001FC04462146284601F01EFD204638BDF7
:101670007047FFFF044B00221A714FF47A711A73FE
:10168000024A99601A6070475009FF1FA04100008C
:1016900008B50368C9B21B68984708BD08B5036858
:1016A000C9B21B68984708BD08B50368C9B21B6872
:1016B000984708BD08B50368C9B21B68984708BDBC
:1016C000034800EB5100B0FBF1F001F0E1BD00BFB9
:1016D000000E270710B5064800EB51001446B0FB7A
:1016E000F1F001F0D5FD2046BDE8104001F010BE3C
:1016F000000E270701F042BE084601F073BE0846FF
:1017000001F0B4BE0846114601F088BE08B508468F
:1017100001F0AEFE003018BF012008BD08B5084634
:1017200001F0C8FE003018BF012008BD01F052BF13
:1017300001F08ABF01F05EBF01F030BF01F09CBF35
:1017400001F036BF08B5084601F0D2FE012008BD01
:1017500008B5084601F0CCFE012008BD10B50846CA
:101760001446114601F00EFF204610BD38B508465C
:101770000D4602F077FB04462146284601F002FFA1
:10178000204638BD7047FFFF044B00221A714FF40A
:101790007A711A73024A99601A6070476009FF1FD4
:1017A0000042000008B50368C9B21B68984708BD2D
:1017B00008B50368C9B21B68984708BD08B5036837
:1017C000C9B21B68984708BD08B50368C9B21B6851
:1017D000984708BD084601F0C9BF10B50846144631
:1017E00001F0C4FF2046BDE8104002F063B802F0EB
:1017F0009BB8084602F0CCB8084602F00DB908467E
:10180000114602F0E1B808B5084602F007F90030C9
:1018100018BF012008BD08B5084602F021F90030C4
:1018200018BF012008BD02F0ABB902F0E3B902F025
:10183000B7B902F089B902F0F5B902F08FB908B56D
:10184000084602F02BF9012008BD08B5084602F051
:1018500025F9012008BD10B508461446114602F0CE
:1018600067F9204610BD38B508460D4602F0FAFA71
:1018700004462146284602F05BF9204638BD7047F1
:10188000044B00221A714FF47A711A73024A99605C
:101890001A6070477009FF1F6042000010B5204BAE
:1018A0002048214960221A70E1225A701F4B204AB9
:1018B0001C78204B082C01D1212402E00A2C03D1F2
:1018C00039240460132005E00C2C0CBF35245D2462
:1018D00004601220086014601860174B17491B78C9
:1018E000174A03B101230B601360164B164A19788F
:1018F000164B012901D880210BE0042901D884214D
:1019000007E0082901D8852103E0102994BF86212A
:101910008721116019600E4B01221A7010BD00BFA3
:101920000040074008B003400CB003406407FF1FAD
:1019300008B00B400CB00B408109FF1F20B00340E2
:1019400020B00B406507FF1F24B0034024B00B40BC
:101950008009FF1F024B1A6801321A60704700BFEE
:101960002808FF1F08B50B4C2368580301D5FEF764
:1019700079FF2368590501D500F060FB23681A053B
:1019800001D500F0C9FE2368DB04ECD501F04EF967
:10199000E9E700BF3480044008B5FFF7E3FFFFFF2D
:1019A000014B10221A807047002005407047FFFF4E
:1019B000EFF313839BB9EFF3108098B9EFF305832E
:1019C00023B10F2B04D9084A985C01E04FF48070D2
:1019D000EFF311833BB1834238BF184670474FF095
:1019E000FF30704718467047F0E300E00A4B1A7862
:1019F000802A0CD1094A0A49116002F5573202F2D5
:101A0000BD32002111701A78802AFCD001E000203C
:101A100070470120704700BF03E007404480044046
:101A200000002822094B1A78012A0DD102F18042C8
:101A300002F5FC22602111701A78802AFCD1044B37
:101A4000044A1A60012070470020704703E00740F5
:101A50004480044000000602294B1A6842F4806268
:101A60001A60284A00231370274A1370274A1370FC
:101A7000274A1370274A1370274B1B78152B06D063
:101A80001B2B08D05BB940F21332244B06E040F226
:101A90001332234B02E0234B40F213321A60224BE5
:101AA0001B78052B07D01A2B09D0012B0BD14FF433
:101AB00051721E4B06E04FF451721D4B02E01D4B5C
:101AC0004FF451721A601C4BC0F344321A70C0F3C9
:101AD00047125A7000F01F000422022198729A7077
:101AE000D9745A7588221A743C22DA70134B40223A
:101AF0001A70A3F21F334FF000421A60704700BF04
:101B0000348004400B0AFF1F8909FF1F140AFF1FBE
:101B10000C0AFF1F8809FF1FCA09FF1F40A00440CD
:101B200018C004403C9004406607FF1F44A00440D6
:101B30001CC004403890044000A006401FE400E0B0
:101B4000194A937800F0030103F0EC030B434107BB
:101B500048BF43F01003937000F00F03042B1249A9
:101B600003D18B7943F040038B7152790E4B02F015
:101B7000EF02C10648BF42F010025A719A7910F084
:101B8000200F02F0EF02194618BF42F010028A71CE
:101B9000C205054B06D55A781978D2B241F020011A
:101BA00019705A70704700BF00A0064008B5114B6D
:101BB0001B685B0500D408BD0F4B1A7802F0FF03C9
:101BC00012B1FFF70FFBF7E70C4A4FF0004111602D
:101BD0000B4A0C49D37040F203120A604A600A4A69
:101BE00013700A4A13700A4B1B680BB101221A705A
:101BF00008BD00BF348004408809FF1F80E100E079
:101C000000A0064040A004400B0AFF1F8909FF1FE7
:101C10008409FF1F38B50446094B1B7803F0FF0504
:101C2000002BF9D120460121FEF76AFC2046294607
:101C3000FEF746FC034B53F83420034B1A6038BDC3
:101C40008809FF1F743E0000100AFF1F10B509B17C
:101C500040F08000194A1378984214462DD0184A53
:101C60001268520528D503F07F03052B06D01A2BE6
:101C700007D0012B08D10022124B04E00022124BA6
:101C800001E0124B00221A60002900F07F020CBF15
:101C900044236023052A07D01A2A09D0012A0BD130
:101CA00043F44073074A06E043F44073064A02E0F7
:101CB000064A43F440731360207010BD6607FF1F8F
:101CC0003480044044A004401CC0044038900440C8
:101CD000144A1378984223D01349096849051ED540
:101CE000152B05D01B2B06D043B910490B6005E01E
:101CF00000210F4B01E00F4B00211960152806D081
:101D00001B2808D058B940F21331084B06E040F2C6
:101D10001331074B02E0074B40F21331196010708A
:101D2000704700BFCA09FF1F3480044040A0044030
:101D300018C004403C9004400D4A38B5146814F4AF
:101D400080624FF0000410D03F280A4D0AD80A4A9A
:101D5000012152F830302B60FEF7D2FB2B681C704B
:101D6000012038BD2C60204638BD104638BD00BF6C
:101D7000348004408409FF1F743E00000E4B1B6832
:101D800013F4806316D012280C4B03D140F20231B9
:101D90000B4A04E0142809D10A4A40F202311160CA
:101DA0005A7B42F001025A73012070475A7B02F0BD
:101DB000FE025A73002070473480044000A00640A1
:101DC0000CA0044014C00440F8B51D4B1B685A0514
:101DD000064633D51B4B1B680BB101221A701A4BF8
:101DE0001C780134402C1F4628BF0024174D2B7847
:101DF000A34218D1FFF7DCFD40280FDC144A137909
:101E00001B06F3D52B7813490133402B28BF002341
:101E1000C95CDBB2C9B2D1712B70E7E7FF28E5DD01
:101E2000FFF7E0F9E2E70B4BF6B21E550A4B012231
:101E30001A70074BE4B2BC223C70DA70F8BD00BFE8
:101E400034800440100AFF1F140AFF1F0C0AFF1FF2
:101E500000A006408A09FF1F8809FF1F274B1B6847
:101E60005A052DE9F04707468A4644D5244B1B689E
:101E70000BB101221A703D4607EB0A039D4237D28F
:101E8000DFF890801F4E98F8004096F800900134DB
:101E9000402C28BF00245FFA89F9A1451DD11A4BB7
:101EA000BC22DA70FFF784FD40280FDC164A137954
:101EB0001B060FD5337815490133402B28BF00236B
:101EC000C95CDBB2C9B2D171337003E0FF2801DD18
:101ED000FFF788F933784B45E4D00C4B15F8012B0C
:101EE0001A550B4B0122E4B21A7088F80040C3E780
:101EF000054BBC22DA70BDE8F08700BF3480044097
:101F0000100AFF1F0C0AFF1F00A006408A09FF1FCE
:101F10008809FF1F140AFF1F08B5034B1B7813B174
:101F2000FFF760F9F9E708BD8809FF1F064A074B6C
:101F30001B781078DBB2C0B283422CBF3F3000F177
:101F4000FF30C01A704700BF0C0AFF1F140AFF1FA2
:101F5000054B1878054B1B78C0B2DBB2984238BFEE
:101F60004030C01A704700BF0B0AFF1F8909FF1FCE
:101F700010B5104B10491A780B78D2B2DBB29A42E6
:101F800014D00133402B28BF00230C48DCB2C05CC6
:101F90000C700B490968C0B251B19A4238BF403247
:101FA000D31A1A2B04DC00230B7010BD4FF0FF3046
:101FB00010BD00BF0B0AFF1F8909FF1FCB09FF1FC0
:101FC0008409FF1F084B1A78084B1B78DBB29A4232
:101FD00007D00133402B28BF0023054AD05CC0B294
:101FE00070474FF0FF3070470B0AFF1F8909FF1F32
:101FF000CB09FF1F0C4B1B685B0514D50B4BDA7824
:1020000002F0CB02DA7040225A74DA7842F03402DD
:10201000DA70074B1A78074BD2B21A70064B1B685E
:102020000BB100221A7070473480044000A00640B3
:102030008909FF1F0B0AFF1F8409FF1F30B5374BAB
:102040001A7912F0300F31D072B69A7D02F0FF008B
:1020500022B9DA7940225A7462B627E062B6304A71
:10206000304913780978DBB2C9B214462B4AD579C6
:102070005A1C402A28BF00228A42EDB202D02A4BC5
:102080009D541346421E12F0FF00EFD1DAB22270C7
:10209000264A126852B18B4236BFC1F14001C1EBF2
:1020A00003035B18272BC4BF012313701B4BD97884
:1020B000C9B20C0620D51B7918061DD51C4B1D4A2C
:1020C0001D781378EDB2DBB21046AB420CD0134A48
:1020D0000133402B1479184C28BF0023E45CE4B290
:1020E000D471127D072AF0D9DBB203700B4B1A7939
:1020F000120644BF7C22DA704B060ED5074B1A79C4
:1021000012F0400F194608D00C4B00221A700C4BED
:102110001B6803B11A703C23CB7030BD00A0064091
:102120000B0AFF1F8909FF1FCB09FF1F8409FF1F2F
:10213000140AFF1F0C0AFF1F8A09FF1F8809FF1FCF
:10214000100AFF1F234B1A6842F400621A60224AE9
:1021500000231370214A1370214A1370214A13700F
:10216000214A1370214B1B78092B05D03B2B07D13B
:1021700040F213321E4B02E01E4B40F213321A6043
:102180001D4B1B780A2B05D03A2B07D14FF4517207
:102190001A4B02E01A4B4FF451721A60194BC0F3FC
:1021A00044321A70C0F347125A700421022200F020
:1021B0001F0098729970DA745975882119743C213E
:1021C000D970114B402119706FF447710B441A609C
:1021D000704700BF34800440860AFF1F1D0AFF1F9E
:1021E0008C0AFF1F870AFF1F1C0AFF1F6707FF1FBC
:1021F00004D004400CB004406807FF1F00D0044026
:1022000010B0044000B0064021E400E0194A937881
:1022100000F0030103F0EC030B43410748BF43F018
:102220001003937000F00F03042B124903D18B7934
:1022300043F040038B7152790E4B02F0EF02C1065E
:1022400048BF42F010025A719A7910F0200F02F044
:10225000EF02194618BF42F010028A71C205054B01
:1022600006D55A781978D2B241F0200119705A7007
:10227000704700BF00B0064008B51C4B1B681B052B
:1022800000D408BD1A4B1A7802F0FF0312B1FEF712
:10229000A9FFF7E7174A02211160174AD370174ABE
:1022A0001278092A04D03B2A06D1154A136003E0AC
:1022B000144B40F203121A60134B1B7803F07F0398
:1022C0000A2B04D03A2B06D10022104B02E0104B0F
:1022D00040F203121A600F4A002313700E4A137063
:1022E0000E4B1B680BB101221A7008BD34800440EC
:1022F0001C0AFF1F84E100E000B006406707FF1FD3
:1023000004D004400CB004406807FF1F00D0044014
:1023100010B00440860AFF1F1D0AFF1F180AFF1F86
:1023200038B50446094B1B7803F0FF05002BF9D1A3
:1023300020460121FEF7E4F820462946FEF7C0F8C2
:10234000034B53F83420034B1A6038BD1C0AFF1F9F
:10235000743E0000880AFF1F10B509B140F08000EC
:10236000144A13789842144622D0134A1268120570
:102370001DD503F07F030A2B04D03A2B05D1002290
:102380000E4B01E00E4B00221A60002900F07F0284
:102390000CBF442360230A2A05D03A2A07D143F40C
:1023A0004073064A02E0064A43F44073136020700B
:1023B00010BD00BF6807FF1F3480044000D00440F8
:1023C00010B004400F4A137898421AD00E49096899
:1023D000090515D5092B04D03B2B05D100210B4B4A
:1023E00001E00B4B00211960092805D03B2807D1DB
:1023F00040F21331054B02E0054B40F213311960F6
:10240000107070476707FF1F3480044004D00440F9
:102410000CB004400D4A38B5146814F400624FF053
:10242000000410D03F280A4D0AD80A4A012152F868
:1024300030302B60FEF764F82B681C70012038BD2B
:102440002C60204638BD104638BD00BF34800440A3
:10245000180AFF1F743E00000E4B1B6813F4006344
:1024600016D017280C4B03D140F202310B4A04E07E
:102470003C2809D10A4A40F2023111605A7B42F0ED
:1024800001025A73012070475A7B02F0FE025A7310
:10249000002070473480044000B0064008B004407B
:1024A00008D00440F8B51D4B1B681A05064633D505
:1024B0001B4B1B680BB101221A701A4B1C7801349C
:1024C000282C1F4628BF0024174D2B78A34218D173
:1024D000FFF76EFA40280FDC144A13791B06F3D578
:1024E0002B7813490133282B28BF0023C95CDBB2AA
:1024F000C9B2D1712B70E7E7FF28E5DDFEF772FE68
:10250000E2E70B4BF6B21E550A4B01221A70074B3D
:10251000E4B2BC223C70DA70F8BD00BF34800440E5
:10252000880AFF1F8C0AFF1F870AFF1F00B00640A2
:102530001E0AFF1F1C0AFF1F274B1B681A052DE9E7
:10254000F04707468A4644D5244B1B680BB101224D
:102550001A703D4607EB0A039D4237D2DFF89080A0
:102560001F4E98F8004096F800900134282C28BFA0
:1025700000245FFA89F9A1451DD11A4BBC22DA70FB
:10258000FFF716FA40280FDC164A13791B060FD501
:10259000337815490133282B28BF0023C95CDBB2EF
:1025A000C9B2D171337003E0FF2801DDFEF71AFED6
:1025B00033784B45E4D00C4B15F8012B1A550B4BD7
:1025C0000122E4B21A7088F80040C3E7054BBC2230
:1025D000DA70BDE8F08700BF34800440880AFF1F2E
:1025E000870AFF1F00B006401E0AFF1F1C0AFF1FBC
:1025F0008C0AFF1F08B5034B1B7813B1FEF7F2FDE1
:10260000F9E708BD1C0AFF1F064A074B1B78107824
:10261000DBB2C0B283422CBF273000F1FF30C01ABA
:10262000704700BF870AFF1F8C0AFF1F054B1878F1
:10263000054B1B78C0B2DBB2984238BF4030C01A9D
:10264000704700BF860AFF1F1D0AFF1F10B5104B01
:1026500010491A780B78D2B2DBB29A4214D0013307
:10266000402B28BF00230C48DCB2C05C0C700B4927
:102670000968C0B251B19A4238BF4032D31A1A2BFE
:1026800004DC00230B7010BD4FF0FF3010BD00BF05
:10269000860AFF1F1D0AFF1F460AFF1F180AFF1F99
:1026A000084B1A78084B1B78DBB29A4207D00133EB
:1026B000402B28BF0023054AD05CC0B270474FF0C2
:1026C000FF307047860AFF1F1D0AFF1F460AFF1FC3
:1026D0000C4B1B681B0514D50B4BDA7802F0CB02B0
:1026E000DA7040225A74DA7842F03402DA70074B1A
:1026F0001A78074BD2B21A70064B1B680BB1002236
:102700001A7070473480044000B006401D0AFF1F55
:10271000860AFF1F180AFF1F30B5374B1A7912F0CF
:10272000300F31D072B69A7D02F0FF0022B9DA790B
:1027300040225A7462B627E062B6304A30491378B4
:102740000978DBB2C9B214462B4AD5795A1C402A03
:1027500028BF00228A42EDB202D02A4B9D54134674
:10276000421E12F0FF00EFD1DAB22270264A126840
:1027700052B18B4236BFC1F14001C1EB03035B187C
:10278000272BC4BF012313701B4BD978C9B20C0689
:1027900020D51B7918061DD51C4B1D4A1D781378B2
:1027A000EDB2DBB21046AB420CD0134A0133282BFA
:1027B0001479184C28BF0023E45CE4B2D471127D74
:1027C000072AF0D9DBB203700B4B1A79120644BF0B
:1027D0007C22DA704B060ED5074B1A7912F0400FA7
:1027E000194608D00C4B00221A700C4B1B6803B121
:1027F0001A703C23CB7030BD00B00640860AFF1F24
:102800001D0AFF1F460AFF1F180AFF1F8C0AFF1F21
:10281000870AFF1F1E0AFF1F1C0AFF1F880AFF1FCF
:10282000164B1A6842F480521A60154A002313703E
:10283000144A1370144A1370144A1370144A137014
:10284000144A40F2133111604FF451715160124A31
:10285000C0F344311170C0F3471100F01F005170F4
:102860009072937013742C23D3700C4B40221A7007
:10287000A3F21F3308221A60704700BF348004405F
:10288000FE0AFF1F950AFF1F040BFF1FFF0AFF1F11
:10289000940AFF1F08C0044000C0064023E400E083
:1028A000194A937800F0030103F0EC030B4341074E
:1028B00048BF43F01003937000F00F03042B12493C
:1028C00003D18B7943F040038B7152790E4B02F0A8
:1028D000EF02C10648BF42F010025A719A7910F017
:1028E000200F02F0EF02194618BF42F010028A7161
:1028F000C205054B06D55A781978D2B241F02001AD
:1029000019705A70704700BF00C0064008B5124BDE
:102910001B68DB0400D408BD104B1A7802F0FF03DB
:1029200012B1FEF75FFCF7E70D4A082111600D4A6E
:1029300001F1804101F59821D37040F203120A6041
:102940004A60094A1370094A1370094B1B680BB19E
:1029500001221A7008BD00BF34800440940AFF1F92
:1029600084E100E000C00640FE0AFF1F950AFF1F39
:10297000900AFF1F38B50446094B1B7803F0FF058A
:10298000002BF9D120460121FDF7BAFD204629464A
:10299000FDF796FD034B53F83420034B1A6038BD06
:1029A000940AFF1F743E0000000BFF1F10B509B111
:1029B00040F080000E4A1378984217D00D4C2468DE
:1029C000E40412D503F07F03082B02D10A4B002444
:1029D0001C60002900F07F030CBF44216021082BFC
:1029E00003D1054B41F440711960107010BD00BF58
:1029F0006907FF1F348004400CC004407047FFFF8C
:102A00000D4A38B5146814F480524FF0000410D009
:102A10003F280A4D0AD80A4A012152F830302B606B
:102A2000FDF76EFD2B681C70012038BD2C60204620
:102A300038BD104638BD00BF34800440900AFF1FE7
:102A4000743E00000B4B1B6813F4805310D00E280B
:102A5000094B09D1094A40F2023111605A7B42F018
:102A600001025A73012070475A7B02F0FE025A732A
:102A7000002070473480044000C0064004C0044079
:102A8000F8B51D4B1B68DA04064633D51B4B1B6893
:102A90000BB101221A701A4B1C780134282C1F46E6
:102AA00028BF0024174D2B78A34218D1FEF780FFD2
:102AB00040280FDC144A13791B06F3D52B781349F1
:102AC0000133282B28BF0023C95CDBB2C9B2D17106
:102AD0002B70E7E7FF28E5DDFEF784FBE2E70B4B11
:102AE000F6B21E550A4B01221A70074BE4B2AC2213
:102AF0003C70DA70F8BD00BF34800440000BFF1F4B
:102B0000040BFF1FFF0AFF1F00C00640960AFF1FAD
:102B1000940AFF1F38B504464518AC4204D014F897
:102B2000010BFFF7ADFFF8E738BDFFFF08B5034B1A
:102B30001B7813B1FEF756FBF9E708BD940AFF1F97
:102B4000064A074B1B781078DBB2C0B283422CBF19
:102B5000273000F1FF30C01A704700BFFF0AFF1F87
:102B6000040BFF1F054B1878054B1B78C0B2DBB276
:102B7000984238BF4030C01A704700BFFE0AFF1F9E
:102B8000950AFF1F10B5104B10491A780B78D2B276
:102B9000DBB29A4214D00133402B28BF00230C48EB
:102BA000DCB2C05C0C700B490968C0B251B19A42EA
:102BB00038BF4032D31A1A2B04DC00230B7010BD2F
:102BC0004FF0FF3010BD00BFFE0AFF1F950AFF1F28
:102BD000BE0AFF1F900AFF1F084B1A78084B1B788C
:102BE000DBB29A4207D00133402B28BF0023054AAD
:102BF000D05CC0B270474FF0FF307047FE0AFF1F35
:102C0000950AFF1FBE0AFF1F054B1A78054BD2B26B
:102C10001A70054B1B680BB100221A70704700BF79
:102C2000950AFF1FFE0AFF1F900AFF1F10B5294BD0
:102C30001A79920620D5284AD87913782749013382
:102C4000402B097828BF00238B42C0B203D024490F
:102C5000C854D9B21170234A116869B1224A127856
:102C6000D2B2934236BFC2F14002C2EB03039B18BB
:102C7000272BC4BF01230B70164AD178C9B20C06AA
:102C800016D51379180613D5184B17481C780378F6
:102C9000DBB29C4202D16C23D37009E00133282BB4
:102CA00028BF0023124CE45CDBB2E4B2D4710370A1
:102CB0004B060ED5074B1A7912F0400F194608D073
:102CC0000C4B00221A700C4B1B6803B11A702C239A
:102CD000CB7010BD00C00640FE0AFF1F950AFF1F03
:102CE000BE0AFF1F900AFF1FFF0AFF1F040BFF1FF2
:102CF000960AFF1F940AFF1F000BFF1F214B1A6843
:102D000042F400521A60204A002313701F4A1370C5
:102D10001F4A13701F4A13701F4A13701F4B1B78F2
:102D20001F2B05D03F2B07D140F213321C4B02E082
:102D30001C4B40F213321A601B4B1B78202B05D022
:102D40003E2B07D14FF45172184B02E0184B4FF451
:102D500051721A60174BC0F344321A70C0F3471215
:102D60005A7000F01F00002298729A701A742C2278
:102D7000DA70114B40226FF448711A700B44202214
:102D80001A60704734800440760BFF1F0D0BFF1F45
:102D90007C0BFF1F770BFF1F0C0BFF1F6A07FF1F2A
:102DA00014D0044028A004406B07FF1F10D004403B
:102DB0002CA0044000D0064025E400E0194A937896
:102DC00000F0030103F0EC030B43410748BF43F05D
:102DD0001003937000F00F03042B124903D18B7979
:102DE00043F040038B7152790E4B02F0EF02C106A3
:102DF00048BF42F010025A719A7910F0200F02F089
:102E0000EF02194618BF42F010028A71C205054B45
:102E100006D55A781978D2B241F0200119705A704B
:102E2000704700BF00D006401E4B1B689B0410B5C6
:102E300000D410BD1C4B1B7803F0FF0213B1FEF74A
:102E4000D1F9F7E7194B1A4C1A48202119601A4B8F
:102E50001A49DA7040F203130B60236000781F28D0
:102E600004D03F2803D1164B1A6000E00B60154BCD
:102E70001B7803F07F03202B05D03E2B06D1124B8D
:102E800000221A6002E040F2031323600F4A00237D
:102E900013700F4A13700F4B1B680BB101221A708D
:102EA00010BD00BF348004400C0BFF1F84E100E024
:102EB0002CA004406A07FF1F00D0064028A0044051
:102EC00014D004406B07FF1F10D00440760BFF1F87
:102ED0000D0BFF1F080BFF1F38B50446094B1B786D
:102EE00003F0FF05002BF9D120460121FDF708FB77
:102EF00020462946FDF7E4FA034B53F83420034BF0
:102F00001A6038BD0C0BFF1F743E0000780BFF1FCA
:102F100010B509B140F08000144A13789842144665
:102F200022D0134A126892041DD503F07F03202B90
:102F300004D03E2B05D100220E4B01E00E4B0022A7
:102F40001A60002900F07F020CBF44236023202A6E
:102F500005D03E2A07D143F44073064A02E0064AF0
:102F600043F440731360207010BD00BF6B07FF1F58
:102F70003480044010D004402CA004400F4A137841
:102F800098421AD00E490968890415D51F2B04D020
:102F90003F2B05D100210B4B01E00B4B00211960A9
:102FA0001F2805D03F2807D140F21331054B02E01E
:102FB000054B40F213311960107070476A07FF1F0C
:102FC0003480044014D0044028A004400D4A38B591
:102FD000146814F400524FF0000410D03F280A4D3A
:102FE0000AD80A4A012152F830302B60FDF788FADE
:102FF0002B681C70012038BD2C60204638BD10465F
:1030000038BD00BF34800440080BFF1F743E000031
:1030100000207047F8B51D4B1B689A04064633D54F
:103020001B4B1B680BB101221A701A4B1C78013420
:10303000282C1F4628BF0024174D2B78A34218D1F7
:10304000FEF7B6FC40280FDC144A13791B06F3D5B3
:103050002B7813490133282B28BF0023C95CDBB22E
:10306000C9B2D1712B70E7E7FF28E5DDFEF7BAF8AA
:10307000E2E70B4BF6B21E550A4B01221A70074BC2
:10308000E4B2AC223C70DA70F8BD00BF348004407A
:10309000780BFF1F7C0BFF1F770BFF1F00D0064034
:1030A0000E0BFF1F0C0BFF1F38B504464518AC4232
:1030B00004D014F8010BFFF7ADFFF8E738BDFFFFB0
:1030C00008B5034B1B7813B1FEF78CF8F9E708BD80
:1030D0000C0BFF1F064A074B1B781078DBB2C0B2FF
:1030E00083422CBF273000F1FF30C01A704700BF69
:1030F000770BFF1F7C0BFF1F054B1878054B1B78C8
:10310000C0B2DBB2984238BF4030C01A704700BF2F
:10311000760BFF1F0D0BFF1F10B5104B10491A78CF
:103120000B78D2B2DBB29A4214D00133402B28BFC5
:1031300000230C48DCB2C05C0C700B490968C0B2BB
:1031400051B19A4238BF4032D31A1A2B04DC002303
:103150000B7010BD4FF0FF3010BD00BF760BFF1F8E
:103160000D0BFF1F360BFF1F080BFF1F084B1A78B4
:10317000084B1B78DBB29A4207D00133402B28BFA3
:103180000023054AD05CC0B270474FF0FF30704753
:10319000760BFF1F0D0BFF1F360BFF1F054B1A7819
:1031A000054BD2B21A70054B1B680BB100221A7086
:1031B000704700BF0D0BFF1F760BFF1F080BFF1F93
:1031C00010B5294B1A79920620D5284AD879137858
:1031D00027490133402B097828BF00238B42C0B216
:1031E00003D02449C854D9B21170234A116869B177
:1031F000224A1278D2B2934236BFC2F14002C2EBE9
:1032000003039B18272BC4BF01230B70164AD178E8
:10321000C9B20C0616D51379180613D5184B1748E2
:103220001C780378DBB29C4202D16C23D37009E096
:103230000133282B28BF0023124CE45CDBB2E4B23C
:10324000D47103704B060ED5074B1A7912F0400F5C
:10325000194608D00C4B00221A700C4B1B6803B1A6
:103260001A702C23CB7010BD00D00640760BFF1FC8
:103270000D0BFF1F360BFF1F080BFF1F770BFF1FE8
:103280007C0BFF1F0E0BFF1F0C0BFF1F780BFF1F8C
:10329000164B1A6842F480621A60154A00231370B4
:1032A000144A1370144A1370144A1370144A13709A
:1032B000144A40F2133111604FF4517142F8041C6A
:1032C000114AC0F344311170C0F3471100F01F00E0
:1032D00051709072937013742C23D3700B4B402257
:1032E0001A70A3F23A3304221A607047288004400F
:1032F000EE0BFF1F850BFF1FF40BFF1FEF0BFF1FD4
:10330000840BFF1F64D0044000A00E4042E400E0A4
:10331000194A937800F0030103F0EC030B434107D3
:1033200048BF43F01003937000F00F03042B1249C1
:1033300003D18B7943F040038B7152790E4B02F02D
:10334000EF02C10648BF42F010025A719A7910F09C
:10335000200F02F0EF02194618BF42F010028A71E6
:10336000C205054B06D55A781978D2B241F0200132
:1033700019705A70704700BF00A00E4008B5114B7D
:103380001B685B0500D408BD0F4B1A7802F0FF03E1
:1033900012B1FDF727FFF7E70C4A042111600C4A30
:1033A0000C49D37040F203120A6041F8042C0A4A17
:1033B00013700A4A13700A4B1B680BB101221A7072
:1033C00008BD00BF28800440840BFF1F88E100E097
:1033D00000A00E4064D00440EE0BFF1F850BFF1FC2
:1033E000800BFF1F38B50446094B1B7803F0FF051F
:1033F000002BF9D120460121FDF782F8204629460D
:10340000FDF75EF8034B53F83420034B1A6038BDC8
:10341000840BFF1F743E0000F00BFF1F10B509B1B5
:1034200040F080000E4A1378984217D00D4C246863
:10343000E40412D503F07F03212B02D10A4B0024B0
:103440001C60002900F07F030CBF44216021212B68
:1034500003D1054B41F440711960107010BD00BFDD
:103460006C07FF1F3480044060D004407047FFFFAA
:103470000D4A38B5146814F480624FF0000410D07F
:103480003F280A4D0AD80A4A012152F830302B60F1
:10349000FDF736F82B681C70012038BD2C602046E3
:1034A00038BD104638BD00BF28800440800BFF1F88
:1034B000743E00000B4B1B6813F4806310D0182877
:1034C000094B09D1094A40F2023111605A7B42F09E
:1034D00001025A73012070475A7B02F0FE025A73B0
:1034E000002070472880044000A00E4068D00440AF
:1034F000F8B51D4B1B685A05064633D51B4B1B6898
:103500000BB101221A701A4B1C780134282C1F466B
:1035100028BF0024174D2B78A34218D1FEF748FA94
:1035200040280FDC144A13791B06F3D52B78134976
:103530000133282B28BF0023C95CDBB2C9B2D1718B
:103540002B70E7E7FF28E5DDFDF74CFEE2E70B4BCC
:10355000F6B21E550A4B01221A70074BE4B2AC2298
:103560003C70DA70F8BD00BF28800440F00BFF1FEC
:10357000F40BFF1FEF0BFF1F00A00E40860BFF1F79
:10358000840BFF1F38B504464518AC4204D014F82C
:10359000010BFFF7ADFFF8E738BDFFFF08B5034BA0
:1035A0001B7813B1FDF71EFEF9E708BD840BFF1F62
:1035B000064A074B1B781078DBB2C0B283422CBF9F
:1035C000273000F1FF30C01A704700BFEF0BFF1F1C
:1035D000F40BFF1F054B1878054B1B78C0B2DBB20C
:1035E000984238BF4030C01A704700BFEE0BFF1F33
:1035F000850BFF1F10B5104B10491A780B78D2B20B
:10360000DBB29A4214D00133402B28BF00230C4870
:10361000DCB2C05C0C700B490968C0B251B19A426F
:1036200038BF4032D31A1A2B04DC00230B7010BDB4
:103630004FF0FF3010BD00BFEE0BFF1F850BFF1FCB
:10364000AE0BFF1F800BFF1F084B1A78084B1B782F
:10365000DBB29A4207D00133402B28BF0023054A32
:10366000D05CC0B270474FF0FF307047EE0BFF1FC9
:10367000850BFF1FAE0BFF1F054B1A78054BD2B20F
:103680001A70054B1B680BB100221A70704700BFFF
:10369000850BFF1FEE0BFF1F800BFF1F10B5294B83
:1036A0001A79920620D5284AD87913782749013308
:1036B000402B097828BF00238B42C0B203D0244995
:1036C000C854D9B21170234A116869B1224A1278DC
:1036D000D2B2934236BFC2F14002C2EB03039B1841
:1036E000272BC4BF01230B70164AD178C9B20C0630
:1036F00016D51379180613D5184B17481C7803787C
:10370000DBB29C4202D16C23D37009E00133282B39
:1037100028BF0023124CE45CDBB2E4B2D471037026
:103720004B060ED5074B1A7912F0400F194608D0F8
:103730000C4B00221A700C4B1B6803B11A702C231F
:10374000CB7010BD00A00E40EE0BFF1F850BFF1FBE
:10375000AE0BFF1F800BFF1FEF0BFF1FF40BFF1FB4
:10376000860BFF1F840BFF1FF00BFF1F444B1A68D3
:1037700042F010022DE9F0411A60424A136803F446
:103780004033B3F5403F904606D03F4A3F4EB3F535
:10379000803F08BF164600E03D4E4FEA800CB6FB66
:1037A000FCF292B2002A68D09100B6FBF1F1091A3E
:1037B00008D0541CA300B6FBF3F3C31A8B423CBFE2
:1037C000A2B21946844405250427B6FBFCF39BB23C
:1037D000F3B103FB05F4B6FBF4F4241A8C4203D8CE
:1037E00074B121462F461A4601339BB203FB05F400
:1037F000B6FBF4F4041B8C4202D90C46134600E0DD
:103800002F460135212D844403D021461A46DCE79A
:1038100013467A1E02F01F02C3F30C0343EA02634D
:10382000072F1C4A1C4998BF43F400331360D8F893
:10383000003043F08063C8F8003000230B70174954
:103840000B7017490B7017490B7017490B7017490C
:1038500040F21350086040F2445048609360136196
:103860005360936843F430139360114B40221A70F5
:10387000A3F24E334FF480021A60BDE8F08100BF1E
:103880002C800440048004400095BA0A40A5AE0292
:10389000006CDC0200400C40660CFF1FFD0BFF1F9C
:1038A0006C0CFF1F670CFF1FFC0BFF1F20C00440A8
:1038B00056E400E01B4A936800F0030123F0130371
:1038C0000B4310F0040F114618BF43F010038B6038
:1038D00000F00F03042B134A03D1936843F0804395
:1038E000936010F0080F0F4B03D01A6842F000529B
:1038F0001A605B68C20623F080530A4A48BF43F04F
:10390000805353609368810623F0805348BF43F08F
:1039100080539360C305034903D50B6843F40053F8
:103920000B60704700400C4008B5114B1B68DB066C
:1039300000D408BD0F4B1A7802F0FF0312B1FDF757
:1039400051FCF7E70C4A4FF4800111600B4A0C4917
:10395000936040F203120A604A600A4A13700A4AEE
:1039600013700A4B1B680BB101221A7008BD00BF0F
:103970002C800440FC0BFF1F88E100E000400C405D
:1039800020C00440660CFF1FFD0BFF1FF80BFF1F3C
:1039900038B50446094B1B7803F0FF05002BF9D11D
:1039A00020460121FCF7ACFD20462946FCF788FDA6
:1039B000034B53F83420034B1A6038BDFC0BFF1F38
:1039C000743E0000680CFF1F10B509B140F0800084
:1039D0000E4A1378984217D00D4C2468E40412D58F
:1039E00003F07F03302B02D10A4B00241C60002916
:1039F00000F07F030CBF44216021302B03D1054B25
:103A000041F440711960107010BD00BF6D07FF1FB9
:103A10003480044024C004407047FFFF0D4A38B58D
:103A2000146814F010024FF0000410D03F280A4D23
:103A30000AD80A4A012152F830302B60FCF760FDA9
:103A40002B681C70012038BD2C60204638BD104604
:103A500038BD00BF2C800440F80BFF1F743E0000EF
:103A60000B4B1B6813F0100310D03828094B09D1F9
:103A7000094A40F2023111605A7B42F001025A7346
:103A8000012070475A7B02F0FE025A7300207047F3
:103A90002C80044000B00E4028D00440F8B51C4BE8
:103AA0001B68DA06064632D51A4B1B680BB1012299
:103AB0001A70194B1C780134282C1F4628BF00248B
:103AC000164D2B78A34218D1FDF772FF40280FDC6A
:103AD000134A53681B02F3D52B7812490133282B64
:103AE00028BF0023C95CDBB2C9B2D1602B70E7E705
:103AF000FF28E5DDFDF776FBE2E70A4B0A4AF6B25E
:103B00001E5501231370094AE4B23C701360F8BDDE
:103B10002C800440680CFF1F6C0CFF1F670CFF1FFC
:103B200000400C40FE0BFF1FFC0BFF1F5C01884395
:103B300038B504464518AC4204D014F8010BFFF721
:103B4000ADFFF8E738BDFFFF08B5034B1B7813B195
:103B5000FDF748FBF9E708BDFC0BFF1F064A074BC2
:103B60001B781078DBB2C0B283422CBF273000F143
:103B7000FF30C01A704700BF670CFF1F6C0CFF1F9F
:103B8000054B1878054B1B78C0B2DBB2984238BFA2
:103B90004030C01A704700BF660CFF1FFD0BFF1FAF
:103BA00010B5104B10491A780B78D2B2DBB29A429A
:103BB00014D00133402B28BF00230C48DCB2C05C7A
:103BC0000C700B490968C0B251B19A4238BF4032FB
:103BD000D31A1A2B04DC00230B7010BD4FF0FF30FA
:103BE00010BD00BF660CFF1FFD0BFF1F260CFF1F43
:103BF000F80BFF1F084B1A78084B1B78DBB29A4270
:103C000007D00133402B28BF0023054AD05CC0B247
:103C100070474FF0FF307047660CFF1FFD0BFF1F12
:103C2000260CFF1F054B1A78054BD2B21A70054BB4
:103C30001B680BB100221A70704700BFFD0BFF1FFD
:103C4000660CFF1FF80BFF1F10B52A4B5A68920233
:103C500020D5294AD868137828490133402B0978A0
:103C600028BF00238B4204D02549C0B2C854D9B222
:103C70001170244A116869B1234A1278D2B2934272
:103C800036BFC2F14002C2EB03039B18272BC4BF0F
:103C900001230B70174A91680C021AD55368180259
:103CA00017D51A4B18481C780378DBB29C4206D112
:103CB000174B00221A60012243F8042C09E001335B
:103CC000282B28BF0023134CE45CDBB2E4B2D460A1
:103CD00003704A020CD5074B5B685B0208D50E4A9D
:103CE000002313700D4A126802B113700C4A13605E
:103CF00010BD00BF00400C40660CFF1FFD0BFF1FF6
:103D0000260CFF1FF80BFF1F670CFF1F6C0CFF1F1B
:103D10005C018843FE0BFF1FFC0BFF1F680CFF1F9D
:103D20005801884330B585B072B6FDF75FFE154B7C
:103D3000154970221A70154A116080221A701A787B
:103D40001206FCD5124B1C68FDF76CFE62B6114BD7
:103D50009C429CBF0A235C4301AD204629460A22AF
:103D600000F03CF80023E95C0B4A29B102EB430068
:103D700001330A2B4180F6D101335B00137005B08B
:103D800030BD00BF000002400000074104000240B7
:103D90000C0002407F969800F607FF1FFDF732B92E
:103DA000FDF7EEB8FDF712B9FDF7CAB9FDF738B95E
:103DB0000846FDF7B9B908461146FDF749B97047FD
:103DC000044B00221A714FF47A711A73024A9960F7
:103DD0001A607047700CFF1F1843000010B50023D5
:103DE000B0FBF2F402FB1400092894BF30303730E6
:103DF000C0B2C85420460CB10133F1E7CA18547060
:103E000022469A4206DA885CCC5C8C54C854013253
:103E1000013BF6E7084610BD70B50E4B0E4DED1A8E
:103E2000AD1000241E46AC4204D056F82420904722
:103E30000134F8E700F080FA084D094BED1AAD1097
:103E400000241E46AC4204D056F82420904701348A
:103E5000F8E770BD444300004443000064430000A1
:103E600044430000034613F8012B002AFBD1181A23
:103E7000013870474008FE4340A004404408FE4318
:103E800044A004400018FE4300C004403000FE433C
:103E9000309004403400FE43349004401C18FE432C
:103EA0001CC004401018FE4310C004400818FE4314
:103EB00008C004400C18FE430CC004400C10FE4324
:103EC0000CB004401010FE4310B004401810FE4324
:103ED00018B004401C10FE431CB004401410FE43F4
:103EE00014B004400418FE4304C004400010FE4314
:103EF00000B004400008FE4300A004400408FE4354
:103F000004A004400C08FE430CA004400808FE4333
:103F100008A004401418FE4314C004401818FE43BF
:103F200018C004400410FE4304B004400810FE43CF
:103F300008B004406820FE4368D004401400FE43EB
:103F4000149004403800FE43389004403C00FE4387
:103F50003C9004404000FE43409004404808FE432B
:103F600048A004404C08FE434CA004402808FE43EF
:103F700028A004402C08FE432CA004406020FE43EF
:103F800060D004406420FE4364D004402010FE430F
:103F900020B004402410FE4324B004402810FE4307
:103FA00028B004402C10FE432CB004404400FE43D3
:103FB000449004407000FE43709004407400FE433F
:103FC000749004406800FE43689004405008FE432B
:103FD00050A004405808FE4358A004405C08FE432B
:103FE0005CA004405408FE4354A004402018FE4343
:103FF00020C004402418FE4324C004401008FE439F
:1040000010A004401408FE4314A004403818FE43D6
:1040100038C004403418FE4334C004403018FE4316
:1040200030C004403C18FE433CC004402C18FE4302
:104030002CC004402820FE4328D004402C20FE43FE
:104040002CD004400020FE4300D004400420FE4356
:1040500004D004400820FE4308D004400C20FE4356
:104060000CD004401020FE4310D004401420FE4326
:1040700014D00440FFFFFFFF00000000000000001C
:10408000F51200000D130000DD120000E512000023
:10409000E1120000E9120000711200008512000018
:1040A000A5120000A9120000AF120000B512000016
:1040B000BD120000CD120000ED120000F112000050
:1040C000411200004D12000059120000651200005C
:1040D0001D1300000113000000000000000000009C
:1040E0000914000021140000F1130000F91300006E
:1040F000F5130000FD130000851300009913000064
:10410000B9130000BD130000C3130000C913000061
:10411000D1130000E1130000011400000514000099
:1041200055130000611300006D13000079130000A7
:104130003114000015140000000000000000000011
:104140001D15000035150000051500000D150000B7
:10415000091500001115000099140000AD140000AD
:10416000CD140000D1140000D7140000DD140000AD
:10417000E5140000F51400001515000019150000E5
:104180006914000075140000811400008D140000F3
:104190004515000029150000000000000000000087
:1041A0003116000049160000191600002116000003
:1041B0001D16000025160000AD150000C1150000F9
:1041C000E1150000E5150000EB150000F1150000F9
:1041D000F915000009160000291600002D16000030
:1041E0007D1500008915000095150000A11500003F
:1041F000591600003D1600000000000000000000FD
:10420000451700005D1700002D170000351700004E
:104210003117000039170000C1160000D516000044
:10422000F5160000F9160000FF1600000517000043
:104230000D1700001D1700003D170000411700007A
:10424000911600009D160000A9160000B51600008A
:104250006D17000051170000000000000000000072
:104260003F18000057180000271800002F18000002
:104270002B18000033180000D5170000DB170000D2
:10428000EF170000F3170000F9170000FF170000F8
:104290000718000017180000371800003B1800002E
:1042A000A5170000B1170000BD170000C9170000D6
:1042B000671800004B1800000015191500010000D8
:1042C0006E07FF1F12000000000200009807FF1F8A
:1042D0004300000000030000F207FF1F0000000081
:1042E000010309048007FF1F000000000203090406
:1042F000DC07FF1F0000000003030904F607FF1F8F
:1043000000000000000000000000000000000000AD
:104310000000000000000000B13D0000B73D0000BB
:104320009D3D0000A13D0000A53D0000A93D00000D
:10433000AD3D000000000000F8B500BFF8BC08BCAF
:104340009E46704735040000391300004D140000EC
:104350006115000075160000891700008118000023
:04436000C13D00005B
:10436400FFFFFFFF0A0401090A081F20222212018D
:10437400010102000040C01683040002010203018F
:1043840018035400650065006E0073007900640032
:10439400750069006E006F0009024300020100C04D
:1043A4003209040000010202010005240010010585
:1043B40024010101042402060524060001070582E4
:1043C4000310004009040100020A0000000705036D
:1043D4000240000007058402400000001603550057
:1043E4005300420020005300650072006900610020
:1043F4006C00040309040C0300000000000000002A
:0C440400000000000000000000000000AC
:00000001FF
